{
  "_format": "hh-sol-artifact-1",
  "contractName": "MyEpicNFT",
  "sourceName": "contracts/MyEpicNFT.sol",
  "abi": [
    {
      "inputs": [],
      "stateMutability": "nonpayable",
      "type": "constructor"
    },
    {
      "anonymous": false,
      "inputs": [
        {
          "indexed": true,
          "internalType": "address",
          "name": "owner",
          "type": "address"
        },
        {
          "indexed": true,
          "internalType": "address",
          "name": "approved",
          "type": "address"
        },
        {
          "indexed": true,
          "internalType": "uint256",
          "name": "tokenId",
          "type": "uint256"
        }
      ],
      "name": "Approval",
      "type": "event"
    },
    {
      "anonymous": false,
      "inputs": [
        {
          "indexed": true,
          "internalType": "address",
          "name": "owner",
          "type": "address"
        },
        {
          "indexed": true,
          "internalType": "address",
          "name": "operator",
          "type": "address"
        },
        {
          "indexed": false,
          "internalType": "bool",
          "name": "approved",
          "type": "bool"
        }
      ],
      "name": "ApprovalForAll",
      "type": "event"
    },
    {
      "anonymous": false,
      "inputs": [
        {
          "indexed": false,
          "internalType": "address",
          "name": "sender",
          "type": "address"
        },
        {
          "indexed": false,
          "internalType": "uint256",
          "name": "tokenId",
          "type": "uint256"
        }
      ],
      "name": "NewEpicNFTMinted",
      "type": "event"
    },
    {
      "anonymous": false,
      "inputs": [
        {
          "indexed": true,
          "internalType": "address",
          "name": "from",
          "type": "address"
        },
        {
          "indexed": true,
          "internalType": "address",
          "name": "to",
          "type": "address"
        },
        {
          "indexed": true,
          "internalType": "uint256",
          "name": "tokenId",
          "type": "uint256"
        }
      ],
      "name": "Transfer",
      "type": "event"
    },
    {
      "inputs": [
        {
          "internalType": "address",
          "name": "to",
          "type": "address"
        },
        {
          "internalType": "uint256",
          "name": "tokenId",
          "type": "uint256"
        }
      ],
      "name": "approve",
      "outputs": [],
      "stateMutability": "nonpayable",
      "type": "function"
    },
    {
      "inputs": [
        {
          "internalType": "address",
          "name": "owner",
          "type": "address"
        }
      ],
      "name": "balanceOf",
      "outputs": [
        {
          "internalType": "uint256",
          "name": "",
          "type": "uint256"
        }
      ],
      "stateMutability": "view",
      "type": "function"
    },
    {
      "inputs": [
        {
          "internalType": "uint256",
          "name": "tokenId",
          "type": "uint256"
        }
      ],
      "name": "getApproved",
      "outputs": [
        {
          "internalType": "address",
          "name": "",
          "type": "address"
        }
      ],
      "stateMutability": "view",
      "type": "function"
    },
    {
      "inputs": [],
      "name": "getMaxNFTsMintValue",
      "outputs": [
        {
          "internalType": "uint256",
          "name": "",
          "type": "uint256"
        }
      ],
      "stateMutability": "view",
      "type": "function"
    },
    {
      "inputs": [],
      "name": "getTotalNFTsMintedSoFar",
      "outputs": [
        {
          "internalType": "uint256",
          "name": "",
          "type": "uint256"
        }
      ],
      "stateMutability": "view",
      "type": "function"
    },
    {
      "inputs": [
        {
          "internalType": "address",
          "name": "owner",
          "type": "address"
        },
        {
          "internalType": "address",
          "name": "operator",
          "type": "address"
        }
      ],
      "name": "isApprovedForAll",
      "outputs": [
        {
          "internalType": "bool",
          "name": "",
          "type": "bool"
        }
      ],
      "stateMutability": "view",
      "type": "function"
    },
    {
      "inputs": [],
      "name": "makeAnEpicNFT",
      "outputs": [],
      "stateMutability": "nonpayable",
      "type": "function"
    },
    {
      "inputs": [],
      "name": "name",
      "outputs": [
        {
          "internalType": "string",
          "name": "",
          "type": "string"
        }
      ],
      "stateMutability": "view",
      "type": "function"
    },
    {
      "inputs": [
        {
          "internalType": "uint256",
          "name": "tokenId",
          "type": "uint256"
        }
      ],
      "name": "ownerOf",
      "outputs": [
        {
          "internalType": "address",
          "name": "",
          "type": "address"
        }
      ],
      "stateMutability": "view",
      "type": "function"
    },
    {
      "inputs": [
        {
          "internalType": "address",
          "name": "from",
          "type": "address"
        },
        {
          "internalType": "address",
          "name": "to",
          "type": "address"
        },
        {
          "internalType": "uint256",
          "name": "tokenId",
          "type": "uint256"
        }
      ],
      "name": "safeTransferFrom",
      "outputs": [],
      "stateMutability": "nonpayable",
      "type": "function"
    },
    {
      "inputs": [
        {
          "internalType": "address",
          "name": "from",
          "type": "address"
        },
        {
          "internalType": "address",
          "name": "to",
          "type": "address"
        },
        {
          "internalType": "uint256",
          "name": "tokenId",
          "type": "uint256"
        },
        {
          "internalType": "bytes",
          "name": "_data",
          "type": "bytes"
        }
      ],
      "name": "safeTransferFrom",
      "outputs": [],
      "stateMutability": "nonpayable",
      "type": "function"
    },
    {
      "inputs": [
        {
          "internalType": "address",
          "name": "operator",
          "type": "address"
        },
        {
          "internalType": "bool",
          "name": "approved",
          "type": "bool"
        }
      ],
      "name": "setApprovalForAll",
      "outputs": [],
      "stateMutability": "nonpayable",
      "type": "function"
    },
    {
      "inputs": [
        {
          "internalType": "bytes4",
          "name": "interfaceId",
          "type": "bytes4"
        }
      ],
      "name": "supportsInterface",
      "outputs": [
        {
          "internalType": "bool",
          "name": "",
          "type": "bool"
        }
      ],
      "stateMutability": "view",
      "type": "function"
    },
    {
      "inputs": [],
      "name": "symbol",
      "outputs": [
        {
          "internalType": "string",
          "name": "",
          "type": "string"
        }
      ],
      "stateMutability": "view",
      "type": "function"
    },
    {
      "inputs": [
        {
          "internalType": "uint256",
          "name": "tokenId",
          "type": "uint256"
        }
      ],
      "name": "tokenURI",
      "outputs": [
        {
          "internalType": "string",
          "name": "",
          "type": "string"
        }
      ],
      "stateMutability": "view",
      "type": "function"
    },
    {
      "inputs": [
        {
          "internalType": "address",
          "name": "from",
          "type": "address"
        },
        {
          "internalType": "address",
          "name": "to",
          "type": "address"
        },
        {
          "internalType": "uint256",
          "name": "tokenId",
          "type": "uint256"
        }
      ],
      "name": "transferFrom",
      "outputs": [],
      "stateMutability": "nonpayable",
      "type": "function"
    }
  ],
  "bytecode": "0x60806040526040518061152001604052806114e78152602001620037856114e791396008908051906020019062000038929190620000f2565b5060326009553480156200004b57600080fd5b506040518060400160405280600781526020017f54696e6f4e4654000000000000000000000000000000000000000000000000008152506040518060400160405280600481526020017f54494e4f000000000000000000000000000000000000000000000000000000008152508160009080519060200190620000d0929190620000f2565b508060019080519060200190620000e9929190620000f2565b50505062000207565b8280546200010090620001a2565b90600052602060002090601f01602090048101928262000124576000855562000170565b82601f106200013f57805160ff191683800117855562000170565b8280016001018555821562000170579182015b828111156200016f57825182559160200191906001019062000152565b5b5090506200017f919062000183565b5090565b5b808211156200019e57600081600090555060010162000184565b5090565b60006002820490506001821680620001bb57607f821691505b60208210811415620001d257620001d1620001d8565b5b50919050565b7f4e487b7100000000000000000000000000000000000000000000000000000000600052602260045260246000fd5b61356e80620002176000396000f3fe608060405234801561001057600080fd5b50600436106101005760003560e01c80636352211e11610097578063b88d4fde11610066578063b88d4fde146102ad578063c87b56dd146102c9578063de9d132f146102f9578063e985e9c51461030357610100565b80636352211e1461021357806370a082311461024357806395d89b4114610273578063a22cb4651461029157610100565b8063095ea7b3116100d3578063095ea7b3146101a157806323b872dd146101bd57806339a16822146101d957806342842e0e146101f757610100565b806301ffc9a714610105578063060475901461013557806306fdde0314610153578063081812fc14610171575b600080fd5b61011f600480360381019061011a919061210e565b610333565b60405161012c9190612769565b60405180910390f35b61013d610415565b60405161014a9190612a04565b60405180910390f35b61015b610426565b6040516101689190612784565b60405180910390f35b61018b60048036038101906101869190612160565b6104b8565b60405161019891906126d9565b60405180910390f35b6101bb60048036038101906101b691906120d2565b61053d565b005b6101d760048036038101906101d29190611fcc565b610655565b005b6101e16106b5565b6040516101ee9190612a04565b60405180910390f35b610211600480360381019061020c9190611fcc565b6106bf565b005b61022d60048036038101906102289190612160565b6106df565b60405161023a91906126d9565b60405180910390f35b61025d60048036038101906102589190611f67565b610791565b60405161026a9190612a04565b60405180910390f35b61027b610849565b6040516102889190612784565b60405180910390f35b6102ab60048036038101906102a69190612096565b6108db565b005b6102c760048036038101906102c2919061201b565b6108f1565b005b6102e360048036038101906102de9190612160565b610953565b6040516102f09190612784565b60405180910390f35b610301610aa5565b005b61031d60048036038101906103189190611f90565b610cb5565b60405161032a9190612769565b60405180910390f35b60007f80ac58cd000000000000000000000000000000000000000000000000000000007bffffffffffffffffffffffffffffffffffffffffffffffffffffffff1916827bffffffffffffffffffffffffffffffffffffffffffffffffffffffff191614806103fe57507f5b5e139f000000000000000000000000000000000000000000000000000000007bffffffffffffffffffffffffffffffffffffffffffffffffffffffff1916827bffffffffffffffffffffffffffffffffffffffffffffffffffffffff1916145b8061040e575061040d82610d49565b5b9050919050565b60006104216007610db3565b905090565b60606000805461043590612c98565b80601f016020809104026020016040519081016040528092919081815260200182805461046190612c98565b80156104ae5780601f10610483576101008083540402835291602001916104ae565b820191906000526020600020905b81548152906001019060200180831161049157829003601f168201915b5050505050905090565b60006104c382610dc1565b610502576040517f08c379a00000000000000000000000000000000000000000000000000000000081526004016104f990612984565b60405180910390fd5b6004600083815260200190815260200160002060009054906101000a900473ffffffffffffffffffffffffffffffffffffffff169050919050565b6000610548826106df565b90508073ffffffffffffffffffffffffffffffffffffffff168373ffffffffffffffffffffffffffffffffffffffff1614156105b9576040517f08c379a00000000000000000000000000000000000000000000000000000000081526004016105b0906129c4565b60405180910390fd5b8073ffffffffffffffffffffffffffffffffffffffff166105d8610e2d565b73ffffffffffffffffffffffffffffffffffffffff161480610607575061060681610601610e2d565b610cb5565b5b610646576040517f08c379a000000000000000000000000000000000000000000000000000000000815260040161063d906128c4565b60405180910390fd5b6106508383610e35565b505050565b610666610660610e2d565b82610eee565b6106a5576040517f08c379a000000000000000000000000000000000000000000000000000000000815260040161069c906129e4565b60405180910390fd5b6106b0838383610fcc565b505050565b6000600954905090565b6106da838383604051806020016040528060008152506108f1565b505050565b6000806002600084815260200190815260200160002060009054906101000a900473ffffffffffffffffffffffffffffffffffffffff169050600073ffffffffffffffffffffffffffffffffffffffff168173ffffffffffffffffffffffffffffffffffffffff161415610788576040517f08c379a000000000000000000000000000000000000000000000000000000000815260040161077f90612904565b60405180910390fd5b80915050919050565b60008073ffffffffffffffffffffffffffffffffffffffff168273ffffffffffffffffffffffffffffffffffffffff161415610802576040517f08c379a00000000000000000000000000000000000000000000000000000000081526004016107f9906128e4565b60405180910390fd5b600360008373ffffffffffffffffffffffffffffffffffffffff1673ffffffffffffffffffffffffffffffffffffffff168152602001908152602001600020549050919050565b60606001805461085890612c98565b80601f016020809104026020016040519081016040528092919081815260200182805461088490612c98565b80156108d15780601f106108a6576101008083540402835291602001916108d1565b820191906000526020600020905b8154815290600101906020018083116108b457829003601f168201915b5050505050905090565b6108ed6108e6610e2d565b8383611233565b5050565b6109026108fc610e2d565b83610eee565b610941576040517f08c379a0000000000000000000000000000000000000000000000000000000008152600401610938906129e4565b60405180910390fd5b61094d848484846113a0565b50505050565b606061095e82610dc1565b61099d576040517f08c379a000000000000000000000000000000000000000000000000000000000815260040161099490612964565b60405180910390fd5b60006006600084815260200190815260200160002080546109bd90612c98565b80601f01602080910402602001604051908101604052809291908181526020018280546109e990612c98565b8015610a365780601f10610a0b57610100808354040283529160200191610a36565b820191906000526020600020905b815481529060010190602001808311610a1957829003601f168201915b505050505090506000610a476113fc565b9050600081511415610a5d578192505050610aa0565b600082511115610a92578082604051602001610a7a9291906125fd565b60405160208183030381529060405292505050610aa0565b610a9b84611413565b925050505b919050565b600954610ab26007610db3565b10610af2576040517f08c379a0000000000000000000000000000000000000000000000000000000008152600401610ae990612804565b60405180910390fd5b610afc60076114ba565b6000610b086007610db3565b905060006008610b17836114d0565b604051602001610b28929190612621565b60405160208183030381529060405290506000610b94610b47846114d0565b604051602001610b5791906126b7565b604051602081830303815290604052610b6f8461167d565b604051602001610b80929190612650565b60405160208183030381529060405261167d565b9050600081604051602001610ba99190612695565b6040516020818303038152906040529050610bf86040518060400160405280601581526020017f0a2d2d2d2d2d2d2d2d2d2d2d2d2d2d2d2d2d2d2d2d0000000000000000000000815250611807565b610c0181611807565b610c3f6040518060400160405280601581526020017f2d2d2d2d2d2d2d2d2d2d2d2d2d2d2d2d2d2d2d2d0a0000000000000000000000815250611807565b610c4933856118a0565b610c5384826118be565b610c766040518060600160405280602581526020016134d4602591398533611932565b7febb98688741ffa4c7589bf325de30cf7becb63de567842e1ccdb6cb949fdc82c3385604051610ca7929190612740565b60405180910390a150505050565b6000600560008473ffffffffffffffffffffffffffffffffffffffff1673ffffffffffffffffffffffffffffffffffffffff16815260200190815260200160002060008373ffffffffffffffffffffffffffffffffffffffff1673ffffffffffffffffffffffffffffffffffffffff16815260200190815260200160002060009054906101000a900460ff16905092915050565b60007f01ffc9a7000000000000000000000000000000000000000000000000000000007bffffffffffffffffffffffffffffffffffffffffffffffffffffffff1916827bffffffffffffffffffffffffffffffffffffffffffffffffffffffff1916149050919050565b600081600001549050919050565b60008073ffffffffffffffffffffffffffffffffffffffff166002600084815260200190815260200160002060009054906101000a900473ffffffffffffffffffffffffffffffffffffffff1673ffffffffffffffffffffffffffffffffffffffff1614159050919050565b600033905090565b816004600083815260200190815260200160002060006101000a81548173ffffffffffffffffffffffffffffffffffffffff021916908373ffffffffffffffffffffffffffffffffffffffff160217905550808273ffffffffffffffffffffffffffffffffffffffff16610ea8836106df565b73ffffffffffffffffffffffffffffffffffffffff167f8c5be1e5ebec7d5bd14f71427d1e84f3dd0314c0f7b2291e5b200ac8c7c3b92560405160405180910390a45050565b6000610ef982610dc1565b610f38576040517f08c379a0000000000000000000000000000000000000000000000000000000008152600401610f2f906128a4565b60405180910390fd5b6000610f43836106df565b90508073ffffffffffffffffffffffffffffffffffffffff168473ffffffffffffffffffffffffffffffffffffffff161480610fb257508373ffffffffffffffffffffffffffffffffffffffff16610f9a846104b8565b73ffffffffffffffffffffffffffffffffffffffff16145b80610fc35750610fc28185610cb5565b5b91505092915050565b8273ffffffffffffffffffffffffffffffffffffffff16610fec826106df565b73ffffffffffffffffffffffffffffffffffffffff1614611042576040517f08c379a000000000000000000000000000000000000000000000000000000000815260040161103990612824565b60405180910390fd5b600073ffffffffffffffffffffffffffffffffffffffff168273ffffffffffffffffffffffffffffffffffffffff1614156110b2576040517f08c379a00000000000000000000000000000000000000000000000000000000081526004016110a990612864565b60405180910390fd5b6110bd8383836119d1565b6110c8600082610e35565b6001600360008573ffffffffffffffffffffffffffffffffffffffff1673ffffffffffffffffffffffffffffffffffffffff16815260200190815260200160002060008282546111189190612bae565b925050819055506001600360008473ffffffffffffffffffffffffffffffffffffffff1673ffffffffffffffffffffffffffffffffffffffff168152602001908152602001600020600082825461116f9190612acd565b92505081905550816002600083815260200190815260200160002060006101000a81548173ffffffffffffffffffffffffffffffffffffffff021916908373ffffffffffffffffffffffffffffffffffffffff160217905550808273ffffffffffffffffffffffffffffffffffffffff168473ffffffffffffffffffffffffffffffffffffffff167fddf252ad1be2c89b69c2b068fc378daa952ba7f163c4a11628f55a4df523b3ef60405160405180910390a461122e8383836119d6565b505050565b8173ffffffffffffffffffffffffffffffffffffffff168373ffffffffffffffffffffffffffffffffffffffff1614156112a2576040517f08c379a000000000000000000000000000000000000000000000000000000000815260040161129990612884565b60405180910390fd5b80600560008573ffffffffffffffffffffffffffffffffffffffff1673ffffffffffffffffffffffffffffffffffffffff16815260200190815260200160002060008473ffffffffffffffffffffffffffffffffffffffff1673ffffffffffffffffffffffffffffffffffffffff16815260200190815260200160002060006101000a81548160ff0219169083151502179055508173ffffffffffffffffffffffffffffffffffffffff168373ffffffffffffffffffffffffffffffffffffffff167f17307eab39ab6107e8899845ad3d59bd9653f200f220920489ca2b5937696c31836040516113939190612769565b60405180910390a3505050565b6113ab848484610fcc565b6113b7848484846119db565b6113f6576040517f08c379a00000000000000000000000000000000000000000000000000000000081526004016113ed906127e4565b60405180910390fd5b50505050565b606060405180602001604052806000815250905090565b606061141e82610dc1565b61145d576040517f08c379a0000000000000000000000000000000000000000000000000000000008152600401611454906129a4565b60405180910390fd5b60006114676113fc565b9050600081511161148757604051806020016040528060008152506114b2565b80611491846114d0565b6040516020016114a29291906125fd565b6040516020818303038152906040525b915050919050565b6001816000016000828254019250508190555050565b60606000821415611518576040518060400160405280600181526020017f30000000000000000000000000000000000000000000000000000000000000008152509050611678565b600082905060005b6000821461154a57808061153390612cfb565b915050600a826115439190612b23565b9150611520565b60008167ffffffffffffffff81111561158c577f4e487b7100000000000000000000000000000000000000000000000000000000600052604160045260246000fd5b6040519080825280601f01601f1916602001820160405280156115be5781602001600182028036833780820191505090505b5090505b60008514611671576001826115d79190612bae565b9150600a856115e69190612d44565b60306115f29190612acd565b60f81b81838151811061162e577f4e487b7100000000000000000000000000000000000000000000000000000000600052603260045260246000fd5b60200101907effffffffffffffffffffffffffffffffffffffffffffffffffffffffffffff1916908160001a905350600a8561166a9190612b23565b94506115c2565b8093505050505b919050565b60606000825114156116a057604051806020016040528060008152509050611802565b60006040518060600160405280604081526020016134f960409139905060006003600285516116cf9190612acd565b6116d99190612b23565b60046116e59190612b54565b67ffffffffffffffff811115611724577f4e487b7100000000000000000000000000000000000000000000000000000000600052604160045260246000fd5b6040519080825280601f01601f1916602001820160405280156117565781602001600182028036833780820191505090505b509050600182016020820185865187015b808210156117c2576003820191508151603f8160121c168501518453600184019350603f81600c1c168501518453600184019350603f8160061c168501518453600184019350603f8116850151845360018401935050611767565b50506003865106600181146117de57600281146117f1576117f9565b603d6001830353603d60028303536117f9565b603d60018303535b50505080925050505b919050565b61189d8160405160240161181b9190612784565b6040516020818303038152906040527f41304fac000000000000000000000000000000000000000000000000000000007bffffffffffffffffffffffffffffffffffffffffffffffffffffffff19166020820180517bffffffffffffffffffffffffffffffffffffffffffffffffffffffff8381831617835250505050611b72565b50565b6118ba828260405180602001604052806000815250611b9b565b5050565b6118c782610dc1565b611906576040517f08c379a00000000000000000000000000000000000000000000000000000000081526004016118fd90612924565b60405180910390fd5b8060066000848152602001908152602001600020908051906020019061192d929190611df3565b505050565b6119cc83838360405160240161194a939291906127a6565b6040516020818303038152906040527fe3849f79000000000000000000000000000000000000000000000000000000007bffffffffffffffffffffffffffffffffffffffffffffffffffffffff19166020820180517bffffffffffffffffffffffffffffffffffffffffffffffffffffffff8381831617835250505050611b72565b505050565b505050565b505050565b60006119fc8473ffffffffffffffffffffffffffffffffffffffff16611bf6565b15611b65578373ffffffffffffffffffffffffffffffffffffffff1663150b7a02611a25610e2d565b8786866040518563ffffffff1660e01b8152600401611a4794939291906126f4565b602060405180830381600087803b158015611a6157600080fd5b505af1925050508015611a9257506040513d601f19601f82011682018060405250810190611a8f9190612137565b60015b611b15573d8060008114611ac2576040519150601f19603f3d011682016040523d82523d6000602084013e611ac7565b606091505b50600081511415611b0d576040517f08c379a0000000000000000000000000000000000000000000000000000000008152600401611b04906127e4565b60405180910390fd5b805181602001fd5b63150b7a0260e01b7bffffffffffffffffffffffffffffffffffffffffffffffffffffffff1916817bffffffffffffffffffffffffffffffffffffffffffffffffffffffff191614915050611b6a565b600190505b949350505050565b60008151905060006a636f6e736f6c652e6c6f679050602083016000808483855afa5050505050565b611ba58383611c19565b611bb260008484846119db565b611bf1576040517f08c379a0000000000000000000000000000000000000000000000000000000008152600401611be8906127e4565b60405180910390fd5b505050565b6000808273ffffffffffffffffffffffffffffffffffffffff163b119050919050565b600073ffffffffffffffffffffffffffffffffffffffff168273ffffffffffffffffffffffffffffffffffffffff161415611c89576040517f08c379a0000000000000000000000000000000000000000000000000000000008152600401611c8090612944565b60405180910390fd5b611c9281610dc1565b15611cd2576040517f08c379a0000000000000000000000000000000000000000000000000000000008152600401611cc990612844565b60405180910390fd5b611cde600083836119d1565b6001600360008473ffffffffffffffffffffffffffffffffffffffff1673ffffffffffffffffffffffffffffffffffffffff1681526020019081526020016000206000828254611d2e9190612acd565b92505081905550816002600083815260200190815260200160002060006101000a81548173ffffffffffffffffffffffffffffffffffffffff021916908373ffffffffffffffffffffffffffffffffffffffff160217905550808273ffffffffffffffffffffffffffffffffffffffff16600073ffffffffffffffffffffffffffffffffffffffff167fddf252ad1be2c89b69c2b068fc378daa952ba7f163c4a11628f55a4df523b3ef60405160405180910390a4611def600083836119d6565b5050565b828054611dff90612c98565b90600052602060002090601f016020900481019282611e215760008555611e68565b82601f10611e3a57805160ff1916838001178555611e68565b82800160010185558215611e68579182015b82811115611e67578251825591602001919060010190611e4c565b5b509050611e759190611e79565b5090565b5b80821115611e92576000816000905550600101611e7a565b5090565b6000611ea9611ea484612a44565b612a1f565b905082815260208101848484011115611ec157600080fd5b611ecc848285612c56565b509392505050565b600081359050611ee381613477565b92915050565b600081359050611ef88161348e565b92915050565b600081359050611f0d816134a5565b92915050565b600081519050611f22816134a5565b92915050565b600082601f830112611f3957600080fd5b8135611f49848260208601611e96565b91505092915050565b600081359050611f61816134bc565b92915050565b600060208284031215611f7957600080fd5b6000611f8784828501611ed4565b91505092915050565b60008060408385031215611fa357600080fd5b6000611fb185828601611ed4565b9250506020611fc285828601611ed4565b9150509250929050565b600080600060608486031215611fe157600080fd5b6000611fef86828701611ed4565b935050602061200086828701611ed4565b925050604061201186828701611f52565b9150509250925092565b6000806000806080858703121561203157600080fd5b600061203f87828801611ed4565b945050602061205087828801611ed4565b935050604061206187828801611f52565b925050606085013567ffffffffffffffff81111561207e57600080fd5b61208a87828801611f28565b91505092959194509250565b600080604083850312156120a957600080fd5b60006120b785828601611ed4565b92505060206120c885828601611ee9565b9150509250929050565b600080604083850312156120e557600080fd5b60006120f385828601611ed4565b925050602061210485828601611f52565b9150509250929050565b60006020828403121561212057600080fd5b600061212e84828501611efe565b91505092915050565b60006020828403121561214957600080fd5b600061215784828501611f13565b91505092915050565b60006020828403121561217257600080fd5b600061218084828501611f52565b91505092915050565b61219281612be2565b82525050565b6121a181612bf4565b82525050565b60006121b282612a8a565b6121bc8185612aa0565b93506121cc818560208601612c65565b6121d581612e31565b840191505092915050565b60006121eb82612a95565b6121f58185612ab1565b9350612205818560208601612c65565b61220e81612e31565b840191505092915050565b600061222482612a95565b61222e8185612ac2565b935061223e818560208601612c65565b80840191505092915050565b6000815461225781612c98565b6122618186612ac2565b9450600182166000811461227c576001811461228d576122c0565b60ff198316865281860193506122c0565b61229685612a75565b60005b838110156122b857815481890152600182019150602081019050612299565b838801955050505b50505092915050565b60006122d6603283612ab1565b91506122e182612e42565b604082019050919050565b60006122f9603783612ab1565b915061230482612e91565b604082019050919050565b600061231c602583612ab1565b915061232782612ee0565b604082019050919050565b600061233f601c83612ab1565b915061234a82612f2f565b602082019050919050565b6000612362602483612ab1565b915061236d82612f58565b604082019050919050565b6000612385601983612ab1565b915061239082612fa7565b602082019050919050565b60006123a8606383612ac2565b91506123b382612fd0565b606382019050919050565b60006123cb602c83612ab1565b91506123d68261306b565b604082019050919050565b60006123ee600d83612ac2565b91506123f9826130ba565b600d82019050919050565b6000612411603883612ab1565b915061241c826130e3565b604082019050919050565b6000612434602a83612ab1565b915061243f82613132565b604082019050919050565b6000612457602983612ab1565b915061246282613181565b604082019050919050565b600061247a602e83612ab1565b9150612485826131d0565b604082019050919050565b600061249d600283612ac2565b91506124a88261321f565b600282019050919050565b60006124c0602083612ab1565b91506124cb82613248565b602082019050919050565b60006124e3603183612ab1565b91506124ee82613271565b604082019050919050565b6000612506602c83612ab1565b9150612511826132c0565b604082019050919050565b6000612529602f83612ab1565b91506125348261330f565b604082019050919050565b600061254c600a83612ac2565b91506125578261335e565b600a82019050919050565b600061256f602183612ab1565b915061257a82613387565b604082019050919050565b6000612592601d83612ac2565b915061259d826133d6565b601d82019050919050565b60006125b5603183612ab1565b91506125c0826133ff565b604082019050919050565b60006125d8600883612ac2565b91506125e38261344e565b600882019050919050565b6125f781612c4c565b82525050565b60006126098285612219565b91506126158284612219565b91508190509392505050565b600061262d828561224a565b91506126398284612219565b9150612644826123e1565b91508190509392505050565b600061265b8261253f565b91506126678285612219565b91506126728261239b565b915061267e8284612219565b915061268982612490565b91508190509392505050565b60006126a082612585565b91506126ac8284612219565b915081905092915050565b60006126c2826125cb565b91506126ce8284612219565b915081905092915050565b60006020820190506126ee6000830184612189565b92915050565b60006080820190506127096000830187612189565b6127166020830186612189565b61272360408301856125ee565b818103606083015261273581846121a7565b905095945050505050565b60006040820190506127556000830185612189565b61276260208301846125ee565b9392505050565b600060208201905061277e6000830184612198565b92915050565b6000602082019050818103600083015261279e81846121e0565b905092915050565b600060608201905081810360008301526127c081866121e0565b90506127cf60208301856125ee565b6127dc6040830184612189565b949350505050565b600060208201905081810360008301526127fd816122c9565b9050919050565b6000602082019050818103600083015261281d816122ec565b9050919050565b6000602082019050818103600083015261283d8161230f565b9050919050565b6000602082019050818103600083015261285d81612332565b9050919050565b6000602082019050818103600083015261287d81612355565b9050919050565b6000602082019050818103600083015261289d81612378565b9050919050565b600060208201905081810360008301526128bd816123be565b9050919050565b600060208201905081810360008301526128dd81612404565b9050919050565b600060208201905081810360008301526128fd81612427565b9050919050565b6000602082019050818103600083015261291d8161244a565b9050919050565b6000602082019050818103600083015261293d8161246d565b9050919050565b6000602082019050818103600083015261295d816124b3565b9050919050565b6000602082019050818103600083015261297d816124d6565b9050919050565b6000602082019050818103600083015261299d816124f9565b9050919050565b600060208201905081810360008301526129bd8161251c565b9050919050565b600060208201905081810360008301526129dd81612562565b9050919050565b600060208201905081810360008301526129fd816125a8565b9050919050565b6000602082019050612a1960008301846125ee565b92915050565b6000612a29612a3a565b9050612a358282612cca565b919050565b6000604051905090565b600067ffffffffffffffff821115612a5f57612a5e612e02565b5b612a6882612e31565b9050602081019050919050565b60008190508160005260206000209050919050565b600081519050919050565b600081519050919050565b600082825260208201905092915050565b600082825260208201905092915050565b600081905092915050565b6000612ad882612c4c565b9150612ae383612c4c565b9250827fffffffffffffffffffffffffffffffffffffffffffffffffffffffffffffffff03821115612b1857612b17612d75565b5b828201905092915050565b6000612b2e82612c4c565b9150612b3983612c4c565b925082612b4957612b48612da4565b5b828204905092915050565b6000612b5f82612c4c565b9150612b6a83612c4c565b9250817fffffffffffffffffffffffffffffffffffffffffffffffffffffffffffffffff0483118215151615612ba357612ba2612d75565b5b828202905092915050565b6000612bb982612c4c565b9150612bc483612c4c565b925082821015612bd757612bd6612d75565b5b828203905092915050565b6000612bed82612c2c565b9050919050565b60008115159050919050565b60007fffffffff0000000000000000000000000000000000000000000000000000000082169050919050565b600073ffffffffffffffffffffffffffffffffffffffff82169050919050565b6000819050919050565b82818337600083830152505050565b60005b83811015612c83578082015181840152602081019050612c68565b83811115612c92576000848401525b50505050565b60006002820490506001821680612cb057607f821691505b60208210811415612cc457612cc3612dd3565b5b50919050565b612cd382612e31565b810181811067ffffffffffffffff82111715612cf257612cf1612e02565b5b80604052505050565b6000612d0682612c4c565b91507fffffffffffffffffffffffffffffffffffffffffffffffffffffffffffffffff821415612d3957612d38612d75565b5b600182019050919050565b6000612d4f82612c4c565b9150612d5a83612c4c565b925082612d6a57612d69612da4565b5b828206905092915050565b7f4e487b7100000000000000000000000000000000000000000000000000000000600052601160045260246000fd5b7f4e487b7100000000000000000000000000000000000000000000000000000000600052601260045260246000fd5b7f4e487b7100000000000000000000000000000000000000000000000000000000600052602260045260246000fd5b7f4e487b7100000000000000000000000000000000000000000000000000000000600052604160045260246000fd5b6000601f19601f8301169050919050565b7f4552433732313a207472616e7366657220746f206e6f6e20455243373231526560008201527f63656976657220696d706c656d656e7465720000000000000000000000000000602082015250565b7f54686973204e46542068617320726561636865642061206c696d697420616e6460008201527f2063616e6e6f74206265206d696e7420616e796d6f7265000000000000000000602082015250565b7f4552433732313a207472616e736665722066726f6d20696e636f72726563742060008201527f6f776e6572000000000000000000000000000000000000000000000000000000602082015250565b7f4552433732313a20746f6b656e20616c7265616479206d696e74656400000000600082015250565b7f4552433732313a207472616e7366657220746f20746865207a65726f2061646460008201527f7265737300000000000000000000000000000000000000000000000000000000602082015250565b7f4552433732313a20617070726f766520746f2063616c6c657200000000000000600082015250565b7f222c20226465736372697074696f6e223a20224120686967686c79206163636c60008201527f61696d656420636f6c6c656374696f6e206f6620737175617265732e222c202260208201527f696d616765223a2022646174613a696d6167652f7376672b786d6c3b6261736560408201527f36342c0000000000000000000000000000000000000000000000000000000000606082015250565b7f4552433732313a206f70657261746f7220717565727920666f72206e6f6e657860008201527f697374656e7420746f6b656e0000000000000000000000000000000000000000602082015250565b7f3c2f746578743e3c2f7376673e00000000000000000000000000000000000000600082015250565b7f4552433732313a20617070726f76652063616c6c6572206973206e6f74206f7760008201527f6e6572206e6f7220617070726f76656420666f7220616c6c0000000000000000602082015250565b7f4552433732313a2062616c616e636520717565727920666f7220746865207a6560008201527f726f206164647265737300000000000000000000000000000000000000000000602082015250565b7f4552433732313a206f776e657220717565727920666f72206e6f6e657869737460008201527f656e7420746f6b656e0000000000000000000000000000000000000000000000602082015250565b7f45524337323155524953746f726167653a2055524920736574206f66206e6f6e60008201527f6578697374656e7420746f6b656e000000000000000000000000000000000000602082015250565b7f227d000000000000000000000000000000000000000000000000000000000000600082015250565b7f4552433732313a206d696e7420746f20746865207a65726f2061646472657373600082015250565b7f45524337323155524953746f726167653a2055524920717565727920666f722060008201527f6e6f6e6578697374656e7420746f6b656e000000000000000000000000000000602082015250565b7f4552433732313a20617070726f76656420717565727920666f72206e6f6e657860008201527f697374656e7420746f6b656e0000000000000000000000000000000000000000602082015250565b7f4552433732314d657461646174613a2055524920717565727920666f72206e6f60008201527f6e6578697374656e7420746f6b656e0000000000000000000000000000000000602082015250565b7f7b226e616d65223a202200000000000000000000000000000000000000000000600082015250565b7f4552433732313a20617070726f76616c20746f2063757272656e74206f776e6560008201527f7200000000000000000000000000000000000000000000000000000000000000602082015250565b7f646174613a6170706c69636174696f6e2f6a736f6e3b6261736536342c000000600082015250565b7f4552433732313a207472616e736665722063616c6c6572206973206e6f74206f60008201527f776e6572206e6f7220617070726f766564000000000000000000000000000000602082015250565b7f4b697474656e2023000000000000000000000000000000000000000000000000600082015250565b61348081612be2565b811461348b57600080fd5b50565b61349781612bf4565b81146134a257600080fd5b50565b6134ae81612c00565b81146134b957600080fd5b50565b6134c581612c4c565b81146134d057600080fd5b5056fe416e204e465420772f20494420257320686173206265656e206d696e74656420746f2025734142434445464748494a4b4c4d4e4f505152535455565758595a6162636465666768696a6b6c6d6e6f707172737475767778797a303132333435363738392b2fa26469706673582212204eec205afba5a703ed0cdd7b5ad5b4dd21b0d3bce5b5db1db95e3c6e69c04da664736f6c634300080100333c73766720786d6c6e733d27687474703a2f2f7777772e77332e6f72672f323030302f737667272076696577426f783d27302030203531322e303132203531322e303132273e3c7061746820643d274d3135342e3731392037322e343033433132362e3836362034332e3230312036332e32342032352e3036392035362e3037372032332e3039376c2d31362e3137342d342e3435312d342e3133362031362e3235384331392e3938392039362e3931392032332e313438203136302e382034342e363631203231342e3738314c3135342e3731392037322e3430337a272066696c6c3d2723666661623030272f3e3c7061746820643d274d3133302e3930372039352e313135632d31342e3030342d31342e3638322d34352e3339342d32372e3639352d36372e30342d33352e3131362d372e3439392033392e3034352d362e3732342037382e32323520322e313533203131332e3930376c36342e3838372d37382e3739317a272066696c6c3d2723643337623933272f3e3c7061746820643d274d3335372e332037322e3430336332372e3835332d32392e3230322039312e3437392d34372e3333342039382e3634322d34392e3330366c31362e3137342d342e34353120342e3133372031362e3235386331352e3737372036322e3031352031322e363139203132352e3839372d382e383934203137392e3837384c3335372e332037322e343033272066696c6c3d2723626437663030272f3e3c7061746820643d274d3338312e3131322039352e3131346331342e3030342d31342e3638322034352e3339342d32372e3639342036372e30342d33352e31313620372e3439392033392e30343520362e3732342037382e3232352d322e313533203131332e3930376c2d36342e3838372d37382e373931272066696c6c3d2723396435623665272f3e3c7061746820643d274d3235362e3031203439332e333636632d36322e38323620302d3132302e3232322d31382e3739352d3136312e3631322d35322e3932322d34342e3837342d33362e3939392d36382e3539322d38382e3733312d36382e3539322d3134392e36303120302d36312e3030342032342e3333312d3132332e3430382036362e3735342d3137312e3230362032312e3330342d32342e3030342034352e3834332d34322e39392037322e3933372d35362e3433322032382e3934342d31342e3336312035392e3339372d32312e3634322039302e3531342d32312e3634327336312e353720372e3238312039302e3531352032312e3634326332372e3039332031332e3434322035312e3633322033322e3432382037322e3933362035362e3433322034322e3432322034372e3739392036362e373533203131302e3230322036362e373533203137312e32303620302036302e38372d32332e373139203131322e3630322d36382e353932203134392e3630312d34312e3339332033342e3132362d39382e3738372035322e3932322d3136312e3631332035322e393232272066696c6c3d2723666661623030272f3e3c7061746820643d274d3134322e363038203331382e3432362e303234203238352e3331336c372e3434332d33322e3035203134322e3538342033332e3131337a4d372e3436203432322e3837322e303234203339302e3831386c3134322e3539382d33332e30383420372e3433372033322e3035347a272066696c6c3d2723343434323432272f3e3c7061746820643d274d3137392e363632203232302e32323663302d31322e30383520392e3638372d32312e3837312032312e3539322d32312e3837312031312e393220302032312e36303620392e3738372032312e3630362032312e383731732d392e3638352032312e3837392d32312e3630362032312e383739632d31312e39303420302d32312e3539322d392e3739362d32312e3539322d32312e3837397a272066696c6c3d2723333333272f3e3c7061746820643d274d3233392e353539203439322e39323363352e3433372e3238382031302e3932312e3434332031362e3435312e3434337331312e3031362d2e3135342031362e3435352d2e343433762d3131302e3734682d33322e393036763131302e3734272066696c6c3d2723343434323432272f3e3c7061746820643d274d3235362e303132203338362e383433632d31362e39393920302d33322e3139352d31332e3335332d33372e3933392d31392e3039352d352e3736372d352e3736332d31392e31382d32312e3033312d31392e31382d33382e32383620302d31342e31313620372e3033312d32342e3834362031392e3739362d33302e32313720382e3530392d332e35382031392e3332322d352e30342033372e3332332d352e30347332382e38313220312e34362033372e33323320352e30346331322e37363520352e3337312031392e3739362031362e3130322031392e3739362033302e32313720302031372e3235352d31332e3431342033322e3532332d31392e31382033382e3238362d352e37343420352e3734322d32302e39342031392e3039352d33372e3933392031392e303935272066696c6c3d2723643337623933272f3e3c7061746820643d274d3235362e303234203439332e333636682d2e3031326d3135342e3834372d34372e35392d2e3032332e303138612e31382e3138203020302031202e3032332d2e3031386d2e3233392d2e3138312d2e3033382e3033632e3031312d2e30312e3032362d2e3032312e3033382d2e30336d2e32342d2e3138332d2e3035322e3033392e3035322d2e3033396d2e3233352d2e3137382d2e3035332e3034312e3035332d2e3034316d2e3233342d2e3137382d2e3035322e30342e3035322d2e30346d2e3233342d2e3137392d2e3035322e3033392e3035322d2e3033396d2e3230372d2e3135382d2e3032332e303138612e3134312e313431203020302031202e3032332d2e3031386d2e3637322d2e3531392d2e3037392e30362e3037392d2e30366d2e3233392d2e3138352d2e3130332e30382e3130332d2e30386d2e3233392d2e3138372d2e3130392e3038342e3130392d2e3038346d2e3233382d2e3138352d2e3131312e3038372e3131312d2e3038376d2e3234322d2e31392d2e3131362e3039312e3131362d2e3039316d2e3234342d2e3139322d2e31332e3130322e31332d2e3130326d2e3233392d2e3138392d2e3133322e3130342e3133322d2e3130346d2e3234332d2e3139322d2e3133382e31312e3133382d2e31316d2e3237332d2e3231362d2e3137332e3133372e3137332d2e3133376d2e3239372d2e3233372d2e3233372e3138392e3233372d2e3138396d2e3233372d2e3138382d2e31392e3135312e31392d2e3135316d2e3233352d2e3138392d2e3135352e3132342e3135352d2e3132346d2e32342d2e3139332d2e3135312e3132322e3135312d2e3132326d2e3233342d2e3138392d2e3134382e31322e3134382d2e31326d2e3233372d2e3139322d2e3134342e3131362e3134342d2e3131366d2e3233322d2e3138382d2e31342e3131342e31342d2e3131346d2e3233382d2e3139342d2e3134312e3131352e3134312d2e3131356d2e3233392d2e3139362d2e3134352e3131382e3134352d2e3131386d2e32352d2e3230352d2e3136322e3133332e3136322d2e3133336d2e3330352d2e32352d2e3233332e3139322e3233332d2e3139324d3235362e3031322034312e3536326333312e31313420302036312e35363820372e3238312039302e3531332032312e3634322d32382e3934342d31342e3336312d35392e3339392d32312e3634322d39302e3531332d32312e3634326d3232312e3432322d312e3836362e3031362e303639612e37372e37372030203020302d2e3031362d2e3036396d2d2e3038342d2e3335342e3032322e3039332d2e3032322d2e3039336d2d2e3038362d2e3335382e3032392e313261332e35323320332e3532332030203020302d2e3032392d2e31326d2d2e3038352d2e3335342e3033322e3133322d2e3033322d2e3133326d2d2e3038372d2e3335372e3033342e3134332d2e3033342d2e3134336d2d2e3038372d2e3335352e3033362e3134392d2e3033362d2e3134396d2d2e3038362d2e3335372e3033382e3135372d2e3033382d2e3135376d2d2e3038382d2e3335332e30342e3135382d2e30342d2e3135386d2d2e3038392d2e3336322e3034332e3137312d2e3034332d2e3137316d2d2e3038392d2e3335362e3034342e3137352d2e3034342d2e3137356d2d2e30392d2e3336322e3034362e3138362d2e3034362d2e3138366d2d2e30392d2e3335382e3034382e31392d2e3034382d2e31396d2d2e3039362d2e33382e3035352e3231382d2e3035352d2e3231386d2d32302e3435392d31322e3238362d322e3335362e36363620322e3335362d2e3636366d31362e3139392d342e3435382d31362e31373420342e3435312031362e3137342d342e34353120342e3133372031362e3235382e30392e3335332d342e3232372d31362e363131272066696c6c3d2723626462646266272f3e3c7061746820643d274d3235362e3031322034312e353632763235322e36343363313820302032382e38313220312e34362033372e33323320352e30342031322e37363520352e3337312031392e3739362031362e3130322031392e3739362033302e32313720302031372e3235352d31332e3431342033322e3532332d31392e31382033382e3238362d332e37383620332e3738342d31312e3637372031302e3837352d32312e3438352031352e323639763130392e3930356335332e30342d322e383138203130312e3339352d31392e323533203133382e3337312d34372e31336c2e3032332d2e3031382e3230312d2e3135312e3033382d2e30332e3138392d2e3134342e3035322d2e30342e3138312d2e3133382e3035332d2e3034312e3138332d2e3133392e3035322d2e3033392e3138322d2e3133392e3035322d2e30342e3138332d2e31342e3032332d2e3031382e3539332d2e3435372e3037392d2e30362e3133362d2e3130352e3130332d2e30382e3133312d2e3130322e3130392d2e3038342e3132362d2e3039392e3131312d2e3038372e3132362d2e3039392e3131362d2e303931632e3033382d2e3033312e3037362d2e3035392e3131342d2e3038396c2e3133312d2e3130322e3130392d2e3038362e3133322d2e3130342e3130342d2e3038322e3133382d2e31312e3039392d2e3037392e3137332d2e3133372e30362d2e3034372e3233372d2e3138392e3034372d2e3033372e31392d2e31353161312e373420312e3734203020302030202e30382d2e3036356c2e3135352d2e3132342e3038392d2e3037312e3135312d2e3132322e3038362d2e3036392e3134382d2e3132632e3033312d2e3032342e3036332d2e30352e3039332d2e3037366c2e3134342d2e313136632e3033312d2e3032342e3036332d2e30352e3039332d2e3037366c2e31342d2e3131342e3039372d2e3037392e3134312d2e3131352e3039342d2e3037372e3134352d2e3131382e3038382d2e3037312e3136322d2e3133332e3037322d2e3035392e3233332d2e3139326331312e3336362d392e3337322032312e3336382d31392e3639312032392e3937382d33302e3836316c2d38352e3632342d31392e38383120372e3434322d33322e3035342039362e3638382032322e3435332d2e3031312d2e3030326331332e3231342d32362e3432362032302e3035312d35362e3331352032302e3131312d38382e3832326c2e3030342d2e3030312d3131362e3739342032372e3132312d372e3434312d33322e303534203132312e39322d32382e333131632d322e3437322d31372e3730392d362e3838382d33352e3239352d31332e3132322d35322e333634613236382e373336203236382e3733362030203020302d32312e3735382d34352e363538203236372e393236203236372e3932362030203020302d32392e3535352d34302e333732632d392e3934392d31312e3230392d32302e362d32312e3332332d33312e38392d33302e32392d382e3936342d372e3131392d31382e3332362d31332e3531362d32382e3035372d31392e3136613234302e343138203234302e3431382030203020302d31322e3737372d362e3837376c2d2e3231322d2e313034632d32382e3934352d31342e3336312d35392e3339382d32312e3634322d39302e3531352d32312e363432272066696c6c3d2723626437663030272f3e3c7061746820643d276d3530342e353638203235332e3232392d32302e36373220342e3830312d3132312e39322032382e33313120372e3434342033322e303533203131362e3739332d32372e3132312032352e3739392d352e3939312d372e3434342d33322e3035334d3336392e3432203335372e3634366c2d372e3434342033322e3035332038352e3632342031392e383833762d2e3030316c35362e3936382031332e32323920372e3434342d33322e3035322d3134322e3539322d33332e313132272066696c6c3d2723333233313332272f3e3c7061746820643d274d3331302e363037203139382e313835632d31322e30313920302d32312e37363920392e3836382d32312e3736392032322e30343373392e37352032322e3034332032312e3736392032322e3034336331322e30303520302032312e3735352d392e3836382032312e3735352d32322e303433732d392e3735312d32322e3034332d32312e3735352d32322e303433272066696c6c3d2723333333272f3e3c7061746820643d274d3237322e343635203338332e303138632d352e30373320322e3237332d31302e36353820332e3832352d31362e34353320332e383235763130362e3532336c372e3632342d2e31303420312e3339362d2e303420372e34332d2e323938682e303032563338332e303138272066696c6c3d2723333233313332272f3e3c7061746820643d274d3235362e303132203239342e3230347639322e36333963352e37393520302031312e33382d312e3535322031362e3435332d332e38323520392e3830382d342e3339352031372e372d31312e3438352032312e3438352d31352e32363920352e3736362d352e3736332031392e31382d32312e3033312031392e31382d33382e32383620302d31342e3131362d372e3033312d32342e3834362d31392e3739362d33302e3231372d382e35312d332e3538322d31392e3332332d352e3034322d33372e3332322d352e303432272066696c6c3d2723396435623665272f3e3c7465787420783d273835252720793d27393925273e4e46542023",
  "linkReferences": {},
  "deployedLinkReferences": {}
}